{
  "contractName": "ReformTheNormAlt",
  "abi": [
    {
      "anonymous": false,
      "inputs": [
        {
          "indexed": false,
          "internalType": "uint256",
          "name": "id",
          "type": "uint256"
        },
        {
          "indexed": false,
          "internalType": "string",
          "name": "name",
          "type": "string"
        },
        {
          "indexed": false,
          "internalType": "string",
          "name": "description",
          "type": "string"
        },
        {
          "indexed": false,
          "internalType": "string",
          "name": "links",
          "type": "string"
        },
        {
          "indexed": false,
          "internalType": "string",
          "name": "sender",
          "type": "string"
        }
      ],
      "name": "MovementCreated",
      "type": "event"
    },
    {
      "anonymous": false,
      "inputs": [
        {
          "indexed": false,
          "internalType": "uint256",
          "name": "id",
          "type": "uint256"
        },
        {
          "indexed": false,
          "internalType": "string",
          "name": "hash",
          "type": "string"
        },
        {
          "indexed": false,
          "internalType": "string",
          "name": "text",
          "type": "string"
        },
        {
          "indexed": false,
          "internalType": "string",
          "name": "trigcontent",
          "type": "string"
        },
        {
          "indexed": false,
          "internalType": "string",
          "name": "location",
          "type": "string"
        },
        {
          "indexed": false,
          "internalType": "string",
          "name": "mainmov",
          "type": "string"
        },
        {
          "indexed": false,
          "internalType": "string",
          "name": "tags",
          "type": "string"
        },
        {
          "indexed": false,
          "internalType": "string",
          "name": "sender",
          "type": "string"
        }
      ],
      "name": "PostCreated",
      "type": "event"
    },
    {
      "constant": true,
      "inputs": [],
      "name": "movementCount",
      "outputs": [
        {
          "internalType": "uint256",
          "name": "",
          "type": "uint256"
        }
      ],
      "payable": false,
      "stateMutability": "view",
      "type": "function"
    },
    {
      "constant": true,
      "inputs": [
        {
          "internalType": "uint256",
          "name": "",
          "type": "uint256"
        }
      ],
      "name": "movements",
      "outputs": [
        {
          "internalType": "uint256",
          "name": "id",
          "type": "uint256"
        },
        {
          "internalType": "string",
          "name": "name",
          "type": "string"
        },
        {
          "internalType": "string",
          "name": "description",
          "type": "string"
        },
        {
          "internalType": "string",
          "name": "links",
          "type": "string"
        },
        {
          "internalType": "string",
          "name": "sender",
          "type": "string"
        }
      ],
      "payable": false,
      "stateMutability": "view",
      "type": "function"
    },
    {
      "constant": true,
      "inputs": [],
      "name": "name",
      "outputs": [
        {
          "internalType": "string",
          "name": "",
          "type": "string"
        }
      ],
      "payable": false,
      "stateMutability": "view",
      "type": "function"
    },
    {
      "constant": true,
      "inputs": [],
      "name": "postCount",
      "outputs": [
        {
          "internalType": "uint256",
          "name": "",
          "type": "uint256"
        }
      ],
      "payable": false,
      "stateMutability": "view",
      "type": "function"
    },
    {
      "constant": true,
      "inputs": [
        {
          "internalType": "uint256",
          "name": "",
          "type": "uint256"
        }
      ],
      "name": "posts",
      "outputs": [
        {
          "internalType": "uint256",
          "name": "id",
          "type": "uint256"
        },
        {
          "internalType": "string",
          "name": "hash",
          "type": "string"
        },
        {
          "internalType": "string",
          "name": "text",
          "type": "string"
        },
        {
          "internalType": "string",
          "name": "trigcontent",
          "type": "string"
        },
        {
          "internalType": "string",
          "name": "location",
          "type": "string"
        },
        {
          "internalType": "string",
          "name": "mainmov",
          "type": "string"
        },
        {
          "internalType": "string",
          "name": "tags",
          "type": "string"
        },
        {
          "internalType": "string",
          "name": "sender",
          "type": "string"
        }
      ],
      "payable": false,
      "stateMutability": "view",
      "type": "function"
    },
    {
      "constant": false,
      "inputs": [
        {
          "internalType": "string",
          "name": "_imgHash",
          "type": "string"
        },
        {
          "internalType": "string",
          "name": "_text",
          "type": "string"
        },
        {
          "internalType": "string",
          "name": "_trigcontent",
          "type": "string"
        },
        {
          "internalType": "string",
          "name": "_location",
          "type": "string"
        },
        {
          "internalType": "string",
          "name": "_mainmov",
          "type": "string"
        },
        {
          "internalType": "string",
          "name": "_tags",
          "type": "string"
        },
        {
          "internalType": "string",
          "name": "_sender",
          "type": "string"
        }
      ],
      "name": "uploadPost",
      "outputs": [],
      "payable": false,
      "stateMutability": "nonpayable",
      "type": "function"
    },
    {
      "constant": false,
      "inputs": [
        {
          "internalType": "string",
          "name": "_name",
          "type": "string"
        },
        {
          "internalType": "string",
          "name": "_description",
          "type": "string"
        },
        {
          "internalType": "string",
          "name": "_links",
          "type": "string"
        },
        {
          "internalType": "string",
          "name": "_sender",
          "type": "string"
        }
      ],
      "name": "uploadMovement",
      "outputs": [],
      "payable": false,
      "stateMutability": "nonpayable",
      "type": "function"
    },
    {
      "constant": true,
      "inputs": [
        {
          "internalType": "uint256",
          "name": "_key",
          "type": "uint256"
        }
      ],
      "name": "getPost",
      "outputs": [
        {
          "components": [
            {
              "internalType": "uint256",
              "name": "id",
              "type": "uint256"
            },
            {
              "internalType": "string",
              "name": "hash",
              "type": "string"
            },
            {
              "internalType": "string",
              "name": "text",
              "type": "string"
            },
            {
              "internalType": "string",
              "name": "trigcontent",
              "type": "string"
            },
            {
              "internalType": "string",
              "name": "location",
              "type": "string"
            },
            {
              "internalType": "string",
              "name": "mainmov",
              "type": "string"
            },
            {
              "internalType": "string",
              "name": "tags",
              "type": "string"
            },
            {
              "internalType": "string",
              "name": "sender",
              "type": "string"
            }
          ],
          "internalType": "struct ReformTheNormAlt.Post",
          "name": "",
          "type": "tuple"
        }
      ],
      "payable": false,
      "stateMutability": "view",
      "type": "function"
    },
    {
      "constant": true,
      "inputs": [
        {
          "internalType": "uint256",
          "name": "_key",
          "type": "uint256"
        }
      ],
      "name": "getMovement",
      "outputs": [
        {
          "components": [
            {
              "internalType": "uint256",
              "name": "id",
              "type": "uint256"
            },
            {
              "internalType": "string",
              "name": "name",
              "type": "string"
            },
            {
              "internalType": "string",
              "name": "description",
              "type": "string"
            },
            {
              "internalType": "string",
              "name": "links",
              "type": "string"
            },
            {
              "internalType": "string",
              "name": "sender",
              "type": "string"
            }
          ],
          "internalType": "struct ReformTheNormAlt.Movement",
          "name": "",
          "type": "tuple"
        }
      ],
      "payable": false,
      "stateMutability": "view",
      "type": "function"
    },
    {
      "constant": true,
      "inputs": [],
      "name": "getPostCount",
      "outputs": [
        {
          "internalType": "uint256",
          "name": "",
          "type": "uint256"
        }
      ],
      "payable": false,
      "stateMutability": "view",
      "type": "function"
    },
    {
      "constant": true,
      "inputs": [],
      "name": "getMovementCount",
      "outputs": [
        {
          "internalType": "uint256",
          "name": "",
          "type": "uint256"
        }
      ],
      "payable": false,
      "stateMutability": "view",
      "type": "function"
    }
  ],
  "bytecode": "0x60c0604052601460808190527f5265666f726d20546865204e6f726d204d61696e00000000000000000000000060a09081526200004091600091906200005f565b50600060015560006002553480156200005857600080fd5b5062000104565b828054600181600116156101000203166002900490600052602060002090601f016020900481019282601f10620000a257805160ff1916838001178555620000d2565b82800160010185558215620000d2579182015b82811115620000d2578251825591602001919060010190620000b5565b50620000e0929150620000e4565b5090565b6200010191905b80821115620000e05760008155600101620000eb565b90565b61192280620001146000396000f3fe608060405234801561001057600080fd5b50600436106100a95760003560e01c806322ba36ea1161007157806322ba36ea1461011857806340731c241461012d5780637c067f5b1461014d5780637da2b688146101715780638cd981a814610184578063bcc95407146101a4576100a9565b806306fdde03146100ae5780630b1e7f83146100cc578063160ad28a146100f357806317906c2e146101085780631e63b8e314610110575b600080fd5b6100b66101ac565b6040516100c391906116d2565b60405180910390f35b6100df6100da366004611519565b61023a565b6040516100c3989796959493929190611781565b6100fb610643565b6040516100c3919061170c565b6100fb61064a565b6100fb610650565b61012b610126366004611321565b610656565b005b61014061013b366004611519565b610754565b6040516100c391906116fb565b61016061015b366004611519565b610b8d565b6040516100c395949392919061171a565b61012b61017f3660046113dd565b610de6565b610197610192366004611519565b610f52565b6040516100c391906116ea565b6100fb6111aa565b6000805460408051602060026001851615610100026000190190941693909304601f810184900484028201840190925281815292918301828280156102325780601f1061020757610100808354040283529160200191610232565b820191906000526020600020905b81548152906001019060200180831161021557829003601f168201915b505050505081565b6003602090815260009182526040918290208054600180830180548651600293821615610100026000190190911692909204601f8101869004860283018601909652858252919492939092908301828280156102d75780601f106102ac576101008083540402835291602001916102d7565b820191906000526020600020905b8154815290600101906020018083116102ba57829003601f168201915b50505060028085018054604080516020601f60001961010060018716150201909416959095049283018590048502810185019091528181529596959450909250908301828280156103695780601f1061033e57610100808354040283529160200191610369565b820191906000526020600020905b81548152906001019060200180831161034c57829003601f168201915b5050505060038301805460408051602060026001851615610100026000190190941693909304601f81018490048402820184019092528181529495949350908301828280156103f95780601f106103ce576101008083540402835291602001916103f9565b820191906000526020600020905b8154815290600101906020018083116103dc57829003601f168201915b5050505060048301805460408051602060026001851615610100026000190190941693909304601f81018490048402820184019092528181529495949350908301828280156104895780601f1061045e57610100808354040283529160200191610489565b820191906000526020600020905b81548152906001019060200180831161046c57829003601f168201915b5050505060058301805460408051602060026001851615610100026000190190941693909304601f81018490048402820184019092528181529495949350908301828280156105195780601f106104ee57610100808354040283529160200191610519565b820191906000526020600020905b8154815290600101906020018083116104fc57829003601f168201915b5050505060068301805460408051602060026001851615610100026000190190941693909304601f81018490048402820184019092528181529495949350908301828280156105a95780601f1061057e576101008083540402835291602001916105a9565b820191906000526020600020905b81548152906001019060200180831161058c57829003601f168201915b5050505060078301805460408051602060026001851615610100026000190190941693909304601f81018490048402820184019092528181529495949350908301828280156106395780601f1061060e57610100808354040283529160200191610639565b820191906000526020600020905b81548152906001019060200180831161061c57829003601f168201915b5050505050905088565b6002545b90565b60015481565b60025481565b600280546001908101918290556040805160a08101825283815260208082018981528284018990526060830188905260808301879052600095865260048252929094208151815591518051919492936106b593908501929101906111b0565b50604082015180516106d19160028401916020909101906111b0565b50606082015180516106ed9160038401916020909101906111b0565b50608082015180516107099160048401916020909101906111b0565b509050507f3c3baea7a80cab5d871755fe12dd1a6adf5a106bd12d4267ddd9fd278a3c549f6002548585858560405161074695949392919061171a565b60405180910390a150505050565b61075c61122e565b6000828152600360209081526040918290208251610100808201855282548252600180840180548751600293821615909402600019011691909104601f81018690048602830186019096528582529194929385810193919291908301828280156108075780601f106107dc57610100808354040283529160200191610807565b820191906000526020600020905b8154815290600101906020018083116107ea57829003601f168201915b5050509183525050600282810180546040805160206001841615610100026000190190931694909404601f810183900483028501830190915280845293810193908301828280156108995780601f1061086e57610100808354040283529160200191610899565b820191906000526020600020905b81548152906001019060200180831161087c57829003601f168201915b505050918352505060038201805460408051602060026001851615610100026000190190941693909304601f810184900484028201840190925281815293820193929183018282801561092d5780601f106109025761010080835404028352916020019161092d565b820191906000526020600020905b81548152906001019060200180831161091057829003601f168201915b505050918352505060048201805460408051602060026001851615610100026000190190941693909304601f81018490048402820184019092528181529382019392918301828280156109c15780601f10610996576101008083540402835291602001916109c1565b820191906000526020600020905b8154815290600101906020018083116109a457829003601f168201915b505050918352505060058201805460408051602060026001851615610100026000190190941693909304601f8101849004840282018401909252818152938201939291830182828015610a555780601f10610a2a57610100808354040283529160200191610a55565b820191906000526020600020905b815481529060010190602001808311610a3857829003601f168201915b505050918352505060068201805460408051602060026001851615610100026000190190941693909304601f8101849004840282018401909252818152938201939291830182828015610ae95780601f10610abe57610100808354040283529160200191610ae9565b820191906000526020600020905b815481529060010190602001808311610acc57829003601f168201915b505050918352505060078201805460408051602060026001851615610100026000190190941693909304601f8101849004840282018401909252818152938201939291830182828015610b7d5780601f10610b5257610100808354040283529160200191610b7d565b820191906000526020600020905b815481529060010190602001808311610b6057829003601f168201915b5050505050815250509050919050565b6004602090815260009182526040918290208054600180830180548651600293821615610100026000190190911692909204601f810186900486028301860190965285825291949293909290830182828015610c2a5780601f10610bff57610100808354040283529160200191610c2a565b820191906000526020600020905b815481529060010190602001808311610c0d57829003601f168201915b50505060028085018054604080516020601f6000196101006001871615020190941695909504928301859004850281018501909152818152959695945090925090830182828015610cbc5780601f10610c9157610100808354040283529160200191610cbc565b820191906000526020600020905b815481529060010190602001808311610c9f57829003601f168201915b5050505060038301805460408051602060026001851615610100026000190190941693909304601f8101849004840282018401909252818152949594935090830182828015610d4c5780601f10610d2157610100808354040283529160200191610d4c565b820191906000526020600020905b815481529060010190602001808311610d2f57829003601f168201915b5050505060048301805460408051602060026001851615610100026000190190941693909304601f8101849004840282018401909252818152949594935090830182828015610ddc5780601f10610db157610100808354040283529160200191610ddc565b820191906000526020600020905b815481529060010190602001808311610dbf57829003601f168201915b5050505050905085565b600180548101808255604080516101008101825282815260208082018c81528284018c9052606083018b9052608083018a905260a0830189905260c0830188905260e0830187905260009485526003825292909320815181559151805191949293610e56938501929101906111b0565b5060408201518051610e729160028401916020909101906111b0565b5060608201518051610e8e9160038401916020909101906111b0565b5060808201518051610eaa9160048401916020909101906111b0565b5060a08201518051610ec69160058401916020909101906111b0565b5060c08201518051610ee29160068401916020909101906111b0565b5060e08201518051610efe9160078401916020909101906111b0565b509050507f498cb759fd27d6e0002260685974cc25f05b8f8d248207eb1ba86a6efc48cce560015488888888888888604051610f41989796959493929190611781565b60405180910390a150505050505050565b610f5a611273565b600460008381526020019081526020016000206040518060a001604052908160008201548152602001600182018054600181600116156101000203166002900480601f01602080910402602001604051908101604052809291908181526020018280546001816001161561010002031660029004801561101b5780601f10610ff05761010080835404028352916020019161101b565b820191906000526020600020905b815481529060010190602001808311610ffe57829003601f168201915b5050509183525050600282810180546040805160206001841615610100026000190190931694909404601f810183900483028501830190915280845293810193908301828280156110ad5780601f10611082576101008083540402835291602001916110ad565b820191906000526020600020905b81548152906001019060200180831161109057829003601f168201915b505050918352505060038201805460408051602060026001851615610100026000190190941693909304601f81018490048402820184019092528181529382019392918301828280156111415780601f1061111657610100808354040283529160200191611141565b820191906000526020600020905b81548152906001019060200180831161112457829003601f168201915b505050918352505060048201805460408051602060026001851615610100026000190190941693909304601f8101849004840282018401909252818152938201939291830182828015610b7d5780601f10610b5257610100808354040283529160200191610b7d565b60015490565b828054600181600116156101000203166002900490600052602060002090601f016020900481019282601f106111f157805160ff191683800117855561121e565b8280016001018555821561121e579182015b8281111561121e578251825591602001919060010190611203565b5061122a9291506112a2565b5090565b60405180610100016040528060008152602001606081526020016060815260200160608152602001606081526020016060815260200160608152602001606081525090565b6040518060a0016040528060008152602001606081526020016060815260200160608152602001606081525090565b61064791905b8082111561122a57600081556001016112a8565b600082601f8301126112cd57600080fd5b81356112e06112db8261184e565b611828565b915080825260208301602083018583830111156112fc57600080fd5b611307838284611882565b50505092915050565b803561131b816118c8565b92915050565b6000806000806080858703121561133757600080fd5b84356001600160401b0381111561134d57600080fd5b611359878288016112bc565b94505060208501356001600160401b0381111561137557600080fd5b611381878288016112bc565b93505060408501356001600160401b0381111561139d57600080fd5b6113a9878288016112bc565b92505060608501356001600160401b038111156113c557600080fd5b6113d1878288016112bc565b91505092959194509250565b600080600080600080600060e0888a0312156113f857600080fd5b87356001600160401b0381111561140e57600080fd5b61141a8a828b016112bc565b97505060208801356001600160401b0381111561143657600080fd5b6114428a828b016112bc565b96505060408801356001600160401b0381111561145e57600080fd5b61146a8a828b016112bc565b95505060608801356001600160401b0381111561148657600080fd5b6114928a828b016112bc565b94505060808801356001600160401b038111156114ae57600080fd5b6114ba8a828b016112bc565b93505060a08801356001600160401b038111156114d657600080fd5b6114e28a828b016112bc565b92505060c08801356001600160401b038111156114fe57600080fd5b61150a8a828b016112bc565b91505092959891949750929550565b60006020828403121561152b57600080fd5b60006115378484611310565b949350505050565b600061154a82611875565b6115548185611879565b935061156481856020860161188e565b61156d816118be565b9093019392505050565b805160009060a084019061158b85826116c3565b50602083015184820360208601526115a3828261153f565b915050604083015184820360408601526115bd828261153f565b915050606083015184820360608601526115d7828261153f565b915050608083015184820360808601526115f1828261153f565b95945050505050565b805160009061010084019061160f85826116c3565b5060208301518482036020860152611627828261153f565b91505060408301518482036040860152611641828261153f565b9150506060830151848203606086015261165b828261153f565b91505060808301518482036080860152611675828261153f565b91505060a083015184820360a086015261168f828261153f565b91505060c083015184820360c08601526116a9828261153f565b91505060e083015184820360e08601526115f1828261153f565b6116cc81610647565b82525050565b602080825281016116e3818461153f565b9392505050565b602080825281016116e38184611577565b602080825281016116e381846115fa565b6020810161131b82846116c3565b60a0810161172882886116c3565b818103602083015261173a818761153f565b9050818103604083015261174e818661153f565b90508181036060830152611762818561153f565b90508181036080830152611776818461153f565b979650505050505050565b6101008101611790828b6116c3565b81810360208301526117a2818a61153f565b905081810360408301526117b6818961153f565b905081810360608301526117ca818861153f565b905081810360808301526117de818761153f565b905081810360a08301526117f2818661153f565b905081810360c0830152611806818561153f565b905081810360e083015261181a818461153f565b9a9950505050505050505050565b6040518181016001600160401b038111828210171561184657600080fd5b604052919050565b60006001600160401b0382111561186457600080fd5b506020601f91909101601f19160190565b5190565b90815260200190565b82818337506000910152565b60005b838110156118a9578181015183820152602001611891565b838111156118b8576000848401525b50505050565b601f01601f191690565b6118d181610647565b81146118dc57600080fd5b5056fea365627a7a7231582066dde15a6da505532d9cf2ec08463f305681cbe2059ecdbbfc6e80fd28cb1c206c6578706572696d656e74616cf564736f6c63430005100040",
  "source": "pragma solidity ^0.5.10;\r\npragma experimental ABIEncoderV2;\r\n\r\ncontract ReformTheNormAlt {\r\n    \r\n    string public name = \"Reform The Norm Main\";\r\n\r\n    uint public postCount = 0;\r\n    uint public movementCount = 0;\r\n\r\n    struct Post {\r\n\r\n        uint id;\r\n        string hash; //IPFS location\r\n        string text;\r\n        string trigcontent;\r\n        string location;\r\n        string mainmov;\r\n        string tags;\r\n        string sender;\r\n\r\n    }\r\n\r\n    struct Movement {\r\n\r\n        uint id;\r\n        string name;\r\n        string description;\r\n        string links;\r\n        string sender;\r\n\r\n    }\r\n\r\n    event PostCreated (\r\n\r\n        uint id,\r\n        string hash,\r\n        string text,\r\n        string trigcontent,\r\n        string location,\r\n        string mainmov,\r\n        string tags,\r\n        string sender\r\n\r\n    );\r\n\r\n    event MovementCreated (\r\n\r\n        uint id,\r\n        string name,\r\n        string description,\r\n        string links,\r\n        string sender\r\n\r\n    );\r\n\r\n    mapping(uint => Post) public posts;\r\n\r\n    mapping(uint => Movement) public movements;\r\n\r\n    function uploadPost(string memory _imgHash, string memory _text, string memory _trigcontent, string memory _location, string memory _mainmov, string memory _tags, string memory _sender) public{\r\n        \r\n        //Increment Post Count:\r\n        postCount = postCount + 1;\r\n\r\n        //Post creation:\r\n        posts[postCount] = Post(postCount, _imgHash, _text, _trigcontent, _location, _mainmov, _tags, _sender);\r\n\r\n        //Emit event:\r\n        emit PostCreated(postCount, _imgHash, _text, _trigcontent, _location, _mainmov, _tags, _sender);\r\n\r\n    }\r\n\r\n    function uploadMovement(string memory _name, string memory _description, string memory _links, string memory _sender) public {\r\n\r\n        movementCount = movementCount + 1;\r\n\r\n        movements[movementCount] = Movement(movementCount, _name, _description, _links, _sender);\r\n\r\n        emit MovementCreated(movementCount, _name, _description, _links, _sender);\r\n\r\n    }\r\n\r\n    function getPost(uint _key) view public returns(Post memory) {\r\n        \r\n        return posts[_key];\r\n    \r\n    }\r\n\r\n    function getMovement(uint _key) view public returns(Movement memory) {\r\n        \r\n        return movements[_key];\r\n    \r\n    }\r\n\r\n    function getPostCount() view public returns(uint) {\r\n\r\n        return postCount;\r\n\r\n    }\r\n\r\n    function getMovementCount() view public returns(uint) {\r\n\r\n        return movementCount;\r\n\r\n    }\r\n    \r\n}\r\n",
  "sourcePath": "C:/Users/dvaba/Documents/ReformTheNorm/Contracts/contracts/ReformTheNormAlt.sol",
  "compiler": {
    "name": "solc",
    "version": "0.5.16+commit.9c3226ce.Emscripten.clang"
  },
  "schemaVersion": "3.3.3",
  "updatedAt": "2021-02-14T11:02:27.315Z",
  "networkType": "ethereum",
  "devdoc": {
    "methods": {}
  },
  "userdoc": {
    "methods": {}
  }
}